{
  "transactions": [
    {
      "hash": "0xd8d7635ab35a6a881066fafeabd1022989f1b7fd11a18b490999dec8945b23bd",
      "transactionType": "CALL",
      "contractName": null,
      "contractAddress": "0x779877a7b0d9e8603169ddbd7836e478b4624789",
      "function": "transferAndCall(address,uint256,bytes)",
      "arguments": [
        "0x9DdfaCa8183c41ad55329BdeeD9F6A8d53168B1B",
        "3000000000000000000",
        "0x7c4956347459186c5955dac2b1bf0270b1926565884b6671ea951325ad379350"
      ],
      "transaction": {
        "from": "0xb31ac0cbaaef38ba6c37d255bf0346c15cdb7db8",
        "to": "0x779877a7b0d9e8603169ddbd7836e478b4624789",
        "gas": "0x1c1ff",
        "value": "0x0",
        "input": "0x4000aea00000000000000000000000009ddfaca8183c41ad55329bdeed9f6a8d53168b1b00000000000000000000000000000000000000000000000029a2241af62c0000000000000000000000000000000000000000000000000000000000000000006000000000000000000000000000000000000000000000000000000000000000207c4956347459186c5955dac2b1bf0270b1926565884b6671ea951325ad379350",
        "nonce": "0x13",
        "chainId": "0xaa36a7"
      },
      "additionalContracts": [],
      "isFixedGasLimit": false
    }
  ],
  "receipts": [
    {
      "status": "0x1",
      "cumulativeGasUsed": "0x13f6243",
      "logs": [
        {
          "address": "0x779877a7b0d9e8603169ddbd7836e478b4624789",
          "topics": [
            "0xddf252ad1be2c89b69c2b068fc378daa952ba7f163c4a11628f55a4df523b3ef",
            "0x000000000000000000000000b31ac0cbaaef38ba6c37d255bf0346c15cdb7db8",
            "0x0000000000000000000000009ddfaca8183c41ad55329bdeed9f6a8d53168b1b"
          ],
          "data": "0x00000000000000000000000000000000000000000000000029a2241af62c0000",
          "blockHash": "0xc99d63efec5f12ad12fd4b5cdeb251494619eb62b2dfcf6751123ae3b75b9d15",
          "blockNumber": "0x802783",
          "blockTimestamp": "0x68322d50",
          "transactionHash": "0xd8d7635ab35a6a881066fafeabd1022989f1b7fd11a18b490999dec8945b23bd",
          "transactionIndex": "0x69",
          "logIndex": "0xdf",
          "removed": false
        },
        {
          "address": "0x779877a7b0d9e8603169ddbd7836e478b4624789",
          "topics": [
            "0xe19260aff97b920c7df27010903aeb9c8d2be5d310a2c67824cf3f15396e4c16",
            "0x000000000000000000000000b31ac0cbaaef38ba6c37d255bf0346c15cdb7db8",
            "0x0000000000000000000000009ddfaca8183c41ad55329bdeed9f6a8d53168b1b"
          ],
          "data": "0x00000000000000000000000000000000000000000000000029a2241af62c0000000000000000000000000000000000000000000000000000000000000000004000000000000000000000000000000000000000000000000000000000000000207c4956347459186c5955dac2b1bf0270b1926565884b6671ea951325ad379350",
          "blockHash": "0xc99d63efec5f12ad12fd4b5cdeb251494619eb62b2dfcf6751123ae3b75b9d15",
          "blockNumber": "0x802783",
          "blockTimestamp": "0x68322d50",
          "transactionHash": "0xd8d7635ab35a6a881066fafeabd1022989f1b7fd11a18b490999dec8945b23bd",
          "transactionIndex": "0x69",
          "logIndex": "0xe0",
          "removed": false
        },
        {
          "address": "0x9ddfaca8183c41ad55329bdeed9f6a8d53168b1b",
          "topics": [
            "0x1ced9348ff549fceab2ac57cd3a9de38edaaab274b725ee82c23e8fc8c4eec7a",
            "0x7c4956347459186c5955dac2b1bf0270b1926565884b6671ea951325ad379350"
          ],
          "data": "0x000000000000000000000000000000000000000000000000000000000000000000000000000000000000000000000000000000000000000029a2241af62c0000",
          "blockHash": "0xc99d63efec5f12ad12fd4b5cdeb251494619eb62b2dfcf6751123ae3b75b9d15",
          "blockNumber": "0x802783",
          "blockTimestamp": "0x68322d50",
          "transactionHash": "0xd8d7635ab35a6a881066fafeabd1022989f1b7fd11a18b490999dec8945b23bd",
          "transactionIndex": "0x69",
          "logIndex": "0xe1",
          "removed": false
        }
      ],
      "logsBloom": "0x00000004000000000000000000000000000000000020000000000000020000000000000000000000000000000000000000000000000000000000000000000000000000000000000001008008020000000000000000000000000020000020000008000000000000000000000000000000000000000000000010000010000040000000040000000000000000010000800000000020000000000000001000000000000000000000000000000000010000000000000000000000000004000000000000000002000000000000000000000000000000000000000100000000000000000010000000000000800000000000000000000000000000000000000000000000",
      "type": "0x2",
      "transactionHash": "0xd8d7635ab35a6a881066fafeabd1022989f1b7fd11a18b490999dec8945b23bd",
      "transactionIndex": "0x69",
      "blockHash": "0xc99d63efec5f12ad12fd4b5cdeb251494619eb62b2dfcf6751123ae3b75b9d15",
      "blockNumber": "0x802783",
      "gasUsed": "0x133b1",
      "effectiveGasPrice": "0xa7d608",
      "from": "0xb31ac0cbaaef38ba6c37d255bf0346c15cdb7db8",
      "to": "0x779877a7b0d9e8603169ddbd7836e478b4624789",
      "contractAddress": null
    }
  ],
  "libraries": [],
  "pending": [],
  "returns": {},
  "timestamp": 1748118864,
  "chain": 11155111,
  "commit": "2d3aee0"
}